:020000040800F2
:1000000000000824F1130008DD120008DF120008C8
:10001000E1120008E3120008E512000800000000E9
:10002000000000000000000000000000E7120008CF
:10003000E912000800000000EB120008ED120008B1
:10004000411400084114000841140008411400083C
:10005000411400084114000841140008411400082C
:10006000411400084114000841140008F51200086A
:100070000513000841140008411400084114000849
:1000800041140008411400084114000841140008FC
:1000900041140008411400084114000841140008EC
:1000A00041140008411400084114000841140008DC
:1000B00041140008411400084114000815130008F9
:1000C00041140008411400084114000841140008BC
:1000D00041140008411400084114000841140008AC
:1000E00041140008411400080000000041140008F9
:1000F000411400084114000841140008411400088C
:10010000411400084114000841140008411400087B
:10011000411400084114000841140008411400086B
:10012000411400084114000841140008411400085B
:10013000411400084114000841140008411400084B
:1001400000000000000000000000000000000000AF
:10015000411400084114000841140008411400082B
:10016000411400084114000841140008411400081B
:100170004114000841140008411400080000000068
:1001800041140008411400084114000841140008FB
:1001900041140008411400084114000841140008EB
:1001A00041140008411400084114000841140008DB
:1001B00041140008411400084114000841140008CB
:1001C00041140008411400084114000841140008BB
:1001D00041140008411400084114000841140008AB
:1001E000411400084114000841140008411400089B
:1001F000411400084114000841140008411400088B
:10020000411400084114000841140008411400087A
:10021000411400084114000841140008411400086A
:1002200041140008411400084114000800000000B7
:1002300041140008411400080000000041140008A7
:10024000411400084114000841140008411400083A
:10025000411400084114000841140008411400082A
:10026000411400084114000841140008411400081A
:100270004114000841140008411400080000000067
:100280004114000841140008411400080000000057
:08029000000000004114000809
:1002C00081F0004102E000BF83F0004330B54FEA07
:1002D00041044FEA430594EA050F08BF90EA020F74
:1002E0001FBF54EA000C55EA020C7FEA645C7FEA07
:1002F000655C00F0E2804FEA5454D4EB5555B8BF2A
:100300006D420CDD2C4480EA020281EA030382EA9A
:10031000000083EA010180EA020281EA0303362D2C
:1003200088BF30BD11F0004F4FEA01314FF4801CFF
:100330004CEA113102D0404261EB410113F0004F11
:100340004FEA03334CEA133302D0524263EB4303C8
:1003500094EA050F00F0A780A4F10104D5F1200E66
:100360000DDB02FA0EFC22FA05F2801841F10001C1
:1003700003FA0EF2801843FA05F359410EE0A5F195
:1003800020050EF1200E012A03FA0EFC28BF4CF0C6
:10039000020C43FA05F3C01851EBE37101F000457C
:1003A00007D54FF0000EDCF1000C7EEB00006EEB89
:1003B0000101B1F5801F1BD3B1F5001F0CD3490813
:1003C0005FEA30004FEA3C0C04F101044FEA44526A
:1003D00012F5800F80F09A80BCF1004F08BF5FEAF1
:1003E000500C50F1000041EB045141EA050130BDD1
:1003F0005FEA4C0C404141EB0101013C28BFB1F5E3
:10040000801FE9D291F0000F04BF01460020B1FA2D
:1004100081F308BF2033A3F10B03B3F120020CDA00
:100420000C3208DD02F1140CC2F10C0201FA0CF0DE
:1004300021FA02F10CE002F11402D8BFC2F1200C43
:1004400001FA02F120FA0CFCDCBF41EA0C019040F9
:10045000E41AA2BF01EB0451294330BD6FEA040442
:100460001F3C1CDA0C340EDC04F11404C4F120022D
:1004700020FA04F001FA02F340EA030021FA04F33F
:1004800045EA030130BDC4F10C04C4F1200220FA96
:1004900002F001FA04F340EA0300294630BD21FAD4
:1004A00004F0294630BD94F0000F83F4801306BF9A
:1004B00081F480110134013D4EE77FEA645C18BF8E
:1004C0007FEA655C29D094EA050F08BF90EA020F25
:1004D00005D054EA000C04BF1946104630BD91EA1D
:1004E000030F1EBF0021002030BD5FEA545C05D120
:1004F0004000494128BF41F0004130BD14F580045F
:100500003CBF01F5801130BD01F0004545F0FE41D2
:1005100041F470014FF0000030BD7FEA645C1ABF07
:10052000194610467FEA655C1CBF0B46024650EA3E
:10053000013406BF52EA033591EA030F41F400216A
:1005400030BD00BF90F0000F04BF0021704730B5F0
:100550004FF4806404F132044FF000054FF00001C5
:1005600050E700BF90F0000F04BF0021704730B586
:100570004FF4806404F1320410F0004548BF40425B
:100580004FF000013EE700BF42004FEAE2014FEAB0
:1005900031014FEA02701FBF12F07F4393F07F4F8B
:1005A00081F06051704732F07F4208BF704793F08E
:1005B0007F4F04BF41F40021704730B54FF46074A1
:1005C00001F0004521F000411CE700BF50EA0102A4
:1005D00008BF704730B54FF000050AE050EA01024D
:1005E00008BF704730B511F0004502D5404261EBBD
:1005F00041014FF4806404F132045FEA915C3FF4FE
:10060000D8AE4FF003025FEADC0C18BF03325FEA9A
:10061000DC0C18BF033202EBDC02C2F1200300FA4B
:1006200003FC20FA02F001FA03FE40EA0E0021FA70
:1006300002F11444BDE600BF70B54FF0FF0C4CF45E
:10064000E06C1CEA11541DBF1CEA135594EA0C0F10
:1006500095EA0C0F00F0DEF82C4481EA030621EA4B
:100660004C5123EA4C5350EA013518BF52EA033586
:1006700041F4801143F4801338D0A0FB02CE4FF038
:100680000005E1FB02E506F00042E0FB03E54FF068
:100690000006E1FB03569CF0000F18BF4EF0010E60
:1006A000A4F1FF04B6F5007F64F5407404D25FEA5C
:1006B0004E0E6D4146EB060642EAC62141EA55510F
:1006C0004FEAC52040EA5E504FEACE2EB4F1FD0C51
:1006D00088BFBCF5E06F1ED8BEF1004F08BF5FEACF
:1006E000500E50F1000041EB045170BD06F0004681
:1006F00046EA010140EA020081EA0301B4EB5C042E
:10070000C2BFD4EB0C0541EA045170BD41F4801125
:100710004FF0000E013C00F3AB8014F1360FDEBF4A
:10072000002001F0004170BDC4F10004203C35DA26
:100730000C341BDC04F11404C4F1200500FA05F3A9
:1007400020FA04F001FA05F240EA020001F000424A
:1007500021F0004110EBD37021FA04F642EB0601C0
:100760005EEA430E08BF20EAD37070BDC4F10C04EA
:10077000C4F1200500FA04F320FA05F001FA04F2AE
:1007800040EA020001F0004110EBD37041F100019A
:100790005EEA430E08BF20EAD37070BDC4F12005A5
:1007A00000FA05F24EEA020E20FA04F301FA05F20D
:1007B00043EA020321FA04F001F0004121FA04F2B5
:1007C00020EA020000EBD3705EEA430E08BF20EA85
:1007D000D37070BD94F0000F0FD101F000464000BF
:1007E00041EB010111F4801F08BF013CF7D041EA41
:1007F000060195F0000F18BF704703F00046520045
:1008000043EB030313F4801F08BF013DF7D043EA15
:100810000603704794EA0C0F0CEA135518BF95EACB
:100820000C0F0CD050EA410618BF52EA4306D1D152
:1008300081EA030101F000414FF0000070BD50EA71
:10084000410606BF1046194652EA430619D094EAFB
:100850000C0F02D150EA013613D195EA0C0F05D1E5
:1008600052EA03361CBF104619460AD181EA030139
:1008700001F0004141F0FE4141F470014FF00000F1
:1008800070BD41F0FE4141F4780170BD70B54FF08C
:10089000FF0C4CF4E06C1CEA11541DBF1CEA13550C
:1008A00094EA0C0F95EA0C0F00F0A7F8A4EB0504EE
:1008B00081EA030E52EA03354FEA013100F08880E5
:1008C0004FEA03334FF0805545EA131343EA1263AE
:1008D0004FEA022245EA111545EA10654FEA002663
:1008E0000EF000419D4208BF964244F1FD0404F51C
:1008F000407402D25B084FEA3202B61A65EB030578
:100900005B084FEA32024FF480104FF4002CB6EB34
:10091000020E75EB030E22BFB61A754640EA0C00B4
:100920005B084FEA3202B6EB020E75EB030E22BFF4
:10093000B61A754640EA5C005B084FEA3202B6EB35
:10094000020E75EB030E22BFB61A754640EA9C00F4
:100950005B084FEA3202B6EB020E75EB030E22BFC4
:10096000B61A754640EADC0055EA060E18D04FEA82
:10097000051545EA16754FEA06164FEAC30343EA22
:1009800052734FEAC2025FEA1C1CC0D111F4801FEF
:100990000BD141EA00014FF000004FF0004CB6E7E8
:1009A00011F4801F04BF01430020B4F1FD0C88BF87
:1009B000BCF5E06F3FF6AFAEB5EB030C04BFB6EB92
:1009C000020C5FEA500C50F1000041EB045170BD85
:1009D0000EF0004E4EEA113114EB5C04C2BFD4EBB2
:1009E0000C0541EA045170BD41F480114FF0000E36
:1009F000013C90E645EA060E8DE60CEA135594EAB2
:100A00000C0F08BF95EA0C0F3FF43BAF94EA0C0FB4
:100A10000AD150EA01347FF434AF95EA0C0F7FF429
:100A200025AF104619462CE795EA0C0F06D152EA7D
:100A300003353FF4FDAE1046194622E750EA410661
:100A400018BF52EA43067FF4C5AE50EA41047FF472
:100A50000DAF52EA43057FF4EBAE12E74FEA4102D5
:100A600012F5001215D211D56FF47873B3EB625200
:100A700012D94FEAC12343F0004343EA505311F027
:100A8000004F23FA02F018BF404270474FF00000B9
:100A9000704750EA013005D111F0004008BF6FF0F7
:100AA000004070474FF00000704700BF4FEA41021E
:100AB000B2F1E04324BFB3F5001CDCF1FE5C0DD9BC
:100AC00001F0004C4FEAC0024CEA5070B2F1004F06
:100AD00040EB830008BF20F00100704711F0804F09
:100AE00021D113F13872BCBF01F00040704741F4CE
:100AF00080114FEA5252C2F11802C2F1200C10FAD2
:100B00000CF320FA02F018BF40F001004FEAC123B5
:100B10004FEAD32303FA0CFC40EA0C0023FA02F359
:100B20004FEA4303CCE77FEA625307D150EA01332F
:100B30001EBF4FF0FE4040F44000704701F00040FF
:100B400040F0FE4040F40000704700BF53B94AB97E
:100B5000002908BF00281CBF4FF0FF314FF0FF30C5
:100B600000F00CB8ADF1080C6DE904CE06F07EFC87
:100B7000DDF804E0DDE9022304B07047704700BFF0
:100B800090F800F06DE9024520F007016FF0000CCD
:100B900010F0070491F820F040F049804FF0000475
:100BA0006FF00700D1E9002391F840F000F1080050
:100BB00082FA4CF2A4FA8CF283FA4CF3A2FA8CF388
:100BC0004BBBD1E9022382FA4CF200F10800A4FAEF
:100BD0008CF283FA4CF3A2FA8CF3E3B9D1E9042343
:100BE00082FA4CF200F10800A4FA8CF283FA4CF37A
:100BF000A2FA8CF37BB9D1E9062301F1200182FA34
:100C00004CF200F10800A4FA8CF283FA4CF3A2FA39
:100C10008CF3002BC6D0002A04BF04301A4612BA47
:100C2000B2FA82F2FDE8024500EBD2007047D1E94A
:100C3000002304F00305C4F100004FEAC50514F0D9
:100C4000040F91F840F00CFA05F562EA05021CBFAA
:100C500063EA050362464FF00004A9E74FF0FF3C4A
:100C600006E000BF4FF0010C02E000BF4FF0010CA6
:100C70004DF804CD4FEA410C7FEA6C5C4FEA430C1F
:100C800018BF7FEA6C5C1BD001B050EA410C0CBF6E
:100C900052EA430C91EA030F02BF90EA020F0020D0
:100CA000704710F1000F91EA030F58BF994208BF37
:100CB00090422CBFD8176FEAE37040F001007047F4
:100CC0004FEA410C7FEA6C5C02D150EA013C07D14B
:100CD0004FEA430C7FEA6C5CD6D152EA033CD3D096
:100CE0005DF8040B704700BF8446104662468C4690
:100CF0001946634600E000BF01B5FFF7B7FF0028C3
:100D000048BF10F1000F01BD4DF808EDFFF7F4FFEB
:100D10000CBF012000205DF808FB00BF4DF808ED76
:100D2000FFF7EAFF34BF012000205DF808FB00BF99
:100D30004DF808EDFFF7E0FF94BF012000205DF8BB
:100D400008FB00BF4DF808EDFFF7CEFF94BF012070
:100D500000205DF808FB00BF4DF808EDFFF7C4FF69
:100D600034BF012000205DF808FB00BF0348044B9E
:100D7000834202D0034B03B1184770472C00002474
:100D80002C00002400000000054806490B1AD90F6A
:100D900001EBA301491002D0034B03B11847704780
:100DA0002C0000242C0000240000000010B5064C8C
:100DB000237843B9FFF7DAFF044B13B10448AFF3CC
:100DC00000800123237010BD2C00002400000000CF
:100DD000248C000808B5054B1BB105490548AFF345
:100DE0000080BDE80840FFF7CFBF00BF0000000053
:100DF00030000024248C000870B58AB000240594CB
:100E000006940794089409942F4BD3F8E02042F0FD
:100E10001002C3F8E020D3F8E02002F010020092A4
:100E2000009AD3F8E02042F08002C3F8E020D3F823
:100E3000E02002F080020192019AD3F8E02042F013
:100E40000102C3F8E020D3F8E02002F00102029290
:100E5000029AD3F8E02042F00402C3F8E020D3F86D
:100E6000E02002F004020392039AD3F8E02042F05B
:100E70000202C3F8E020D3F8E03003F00203049349
:100E8000049B124E22460221304601F0E3FE082365
:100E9000059306940125079505A90D4801F0CAFDA3
:100EA0000223059306950794089405A9304601F09E
:100EB000C1FD202305930694079505A9054801F077
:100EC000B9FD0AB070BD00BF0044025800000258CE
:100ED000001002580008025800B583B00F4BD3F839
:100EE000D82042F00102C3F8D820D3F8D83003F05C
:100EF00001030193019B002211460B2000F036FBF9
:100F00000B2000F069FB002211460C2000F02EFBA4
:100F10000C2000F061FB03B05DF804FB00440258B4
:100F200072B6FEE708B51148114B0360114B4360E0
:100F3000002383600122C260036143618361C36156
:100F4000036202F09FF850B90021084803F035FB16
:100F500038B90021054803F05EFB20B908BDFFF752
:100F6000DFFFFFF7DDFFFFF7DBFF00BF38010024E5
:100F700000540040FFECC01008B51548154B036045
:100F80004FF4E133436000238360C36003610C22AC
:100F900042618361C36103624362836205F00FFEB5
:100FA00070B900210A4805F082FE58B900210848AE
:100FB00005F0A2FE40B9064805F05AFE30B908BD5A
:100FC000FFF7AEFFFFF7ACFFFFF7AAFFFFF7A8FFA1
:100FD0008C0100240010014000B59DB04C2200217E
:100FE00009A806F0CFFB2022002101A806F0CAFBC9
:100FF000022003F03DFB00230093254BDA6A22F028
:101000000102DA62DB6A03F001030093214B9A6963
:1010100042F440429A619B6903F440430093009B71
:101020001C4B9B6913F4005FFAD0012309934FF422
:1010300080330A9302231293139314934022159240
:101040001693179318930C23199300231A931B9349
:1010500009A803F037FBB0B93F23019303230293A0
:1010600000230393082304934023059306934FF42E
:10107000806207920893022101A803F077FF20B94C
:101080001DB05DF804FBFFF74BFFFFF749FF00BF02
:10109000000400580048025808B500F0FBF9FFF7BB
:1010A0009BFFFFF7A9FEFFF717FFFFF73BFFFFF7D7
:1010B00063FF06F003F806F03DF84FF47A7000F095
:1010C00029FA06F069F84FF47A7000F023FA06F076
:1010D000C7F84FF47A7000F01DFA06F09FF94FF44C
:1010E0007A7000F017FA06F007F80221034801F0C1
:1010F000B7FD4FF4FA7000F00DFAF6E70000025861
:1011000082B0074BD3F8F42042F00202C3F8F42077
:10111000D3F8F43003F002030193019B02B070474F
:101120000044025870B5B8B00446002133913491A0
:10113000359136913791C02202A806F023FB226830
:101140002C4B9A4201D038B070BD08220023CDE963
:10115000022302A804F0A6F9002844D1264ED6F8AE
:10116000E03043F00203C6F8E030D6F8E03003F098
:1011700002030093009BC023339312233493002572
:10118000359536950423379333A91C4801F052FC5A
:10119000D6F8E83043F40013C6F8E830D6F8E83063
:1011A00003F400130193019B1548164B036022239F
:1011B000436040238360C5604FF4806303614561F1
:1011C0008561C5610562456200F03CFC70B90C4B5D
:1011D000A3639C63002211461F2000F0C7F91F2063
:1011E00000F0FAF9AFE7FFF79BFEB7E7FFF798FECD
:1011F000EDE700BF005400400044025800040258CC
:10120000480000242800024030B5B9B0044600214F
:1012100033913491359136913791C02202A806F06E
:10122000B1FA2268284B9A4201D039B030BD012270
:101230000023CDE9022302A804F034F900283DD1AF
:10124000224BD3F8F02042F01002C3F8F020D3F87C
:10125000F02002F010020092009AD3F8E02042F051
:101260000202C3F8E020D3F8E03003F00203019358
:10127000019B4FF44043339302233493002535956B
:1012800036950423379333A9114801F0D3FB114855
:10129000114B0360292343608560C5604FF4806370
:1012A000036145618561C5610562456200F0CAFB65
:1012B00038B9084BC4F880309C63B6E7FFF730FEBE
:1012C000BEE7FFF72DFEF4E700100140004402588E
:1012D00000040258C000002410000240FEE7FEE7B0
:1012E000FEE7FEE7FEE770477047704708B500F07D
:1012F000FFF808BD08B5024800F0FAFF08BD00BFBE
:10130000C000002408B5024800F0F2FF08BD00BF8D
:101310004800002408B5024802F02CF908BD00BFBF
:1013200038010024274AD2F8883043F47003C2F809
:101330008830254B1B6803F00F03062B06D8224A82
:10134000136823F00F0343F0070313601F4B1A6861
:1013500042F001021A6000221A6119681C4A0A4010
:101360001A60194B1B6813F0080F06D0164A136851
:1013700023F00F0343F007031360144B00229A611C
:10138000DA611A62134999621349D96213491963E0
:101390005A639963DA6319645A64196821F48021E5
:1013A00019601A660E4B1A680E4B1340B3F1005FBA
:1013B00003D20D4B0122C3F808210C4B43F2D20299
:1013C0001A60704700ED00E000200052004402580F
:1013D0007FEDF6EA000202020000FF018002010137
:1013E0000010005C0000FFFF008000510040005230
:1013F000DFF834D0FFF796FF0C480D490D4A002363
:1014000002E0D458C4500433C4188C42F9D30A4AB9
:101410000A4C002301E013600432A242FBD306F021
:101420008DF9FFF739FE7047000008240000002402
:101430002C000024F09200082C000024480A00240C
:10144000FEE70000104B1B780BB90120704710B568
:1014500004464FF47A70B0FBF3F30C4A1068B0FB0B
:10146000F3F000F0C7F868B90F2C01D901200AE0A9
:10147000002221464FF0FF3000F078F8044B1C604A
:10148000002000E0012010BD08000024000000241E
:101490000C00002410B5032000F056F803F06CFC9B
:1014A0000F498B69C3F303230E4AD35C03F01F0378
:1014B000D8408B6903F00F03D35C03F01F0320FABD
:1014C00003F3094A1360094B18600F20FFF7BAFFB6
:1014D00010B10124204610BD0446FFF711FEF9E7C4
:1014E00000440258408C000804000024000000243E
:1014F000034B1B78034A11680B441360704700BF0D
:101500000800002420020024014B1868704700BF27
:101510002002002438B50446FFF7F6FF0546B4F173
:10152000FF3F02D0044B1B781C44FFF7EDFF401B2C
:10153000A042FAD338BD00BF08000024014B186850
:10154000000C70470010005C0649CB6823F4E06390
:101550001B041B0C000200F4E0600343024A1A4320
:10156000CA60704700ED00E00000FA0500B5174BB7
:10157000DB68C3F30223C3F1070CBCF1040F28BFDF
:101580004FF0040C03F1040EBEF1060F14D9033B17
:101590004FF0FF3E0EFA0CFC21EA0C0199400EFAC6
:1015A00003F322EA03031943002807DB0901C9B248
:1015B000074B19545DF804FB0023E9E700F00F0026
:1015C0000901C9B2034B1954F4E700BF00ED00E074
:1015D00000E400E014ED00E0002807DB00F01F024B
:1015E000400901239340024A42F82030704700BF6F
:1015F00000E100E00138B0F1807F0BD24FF0E02332
:101600005861054AF02182F82310002098610722D2
:101610001A6170470120704700ED00E0F0B4876D5B
:101620000468664E664DAC4218BFB44242D01835CD
:10163000AC423FD01835AC423CD01835AC4239D022
:101640001835AC4236D01835AC4233D01835AC42E0
:1016500030D005F55675AC422CD01835AC4229D0A7
:101660001835AC4226D01835AC4223D01835AC42E0
:1016700020D01835AC421DD01835AC421AD01835E0
:10168000AC4217D04F4DAC4214D01435AC4211D0FF
:101690001435AC420ED01435AC420BD01435AC42EC
:1016A00008D01435AC4205D01435AC4202D0143504
:1016B000AC4207D1446E856E6560C46E14B1046F90
:1016C000456F656004683D4E3D4DAC4218BFB44265
:1016D00052D01835AC424FD01835AC424CD01835EA
:1016E000AC4249D01835AC4246D01835AC4243D054
:1016F0001835AC4240D005F55675AC423CD0183593
:10170000AC4239D01835AC4236D01835AC4233D063
:101710001835AC4230D01835AC422DD01835AC421B
:101720002AD01835AC4227D0264E274DAC4218BFE0
:10173000B44211D0254DAC420ED01435AC420BD082
:101740001435AC4208D01435AC4205D01435AC4247
:1017500002D01435AC4224D1C46D04F01F0501241D
:10176000AC407C60046863608368402B20D00368D1
:1017700099600368DA6014E0C46D04F01F0C3F2424
:1017800004FA0CF4BC6005682C6824F480242C60F6
:10179000046863608368402B05D003689960036820
:1017A000DA60F0BC704703689A600368D960F8E7B4
:1017B00003689A600368D960F3E700BF1000024035
:1017C00028000240085402581C5402583054025851
:1017D00003682749274A934218BF8B422FD01832FB
:1017E00093422CD01832934229D01832934226D0FB
:1017F0001832934223D01832934220D018329342A9
:101800001DD002F55672934219D01832934216D069
:101810001832934213D01832934210D018329342A8
:101820000DD0183293420AD01832934207D01832A2
:10183000934204D023F0FF038365806D704710B49A
:10184000D9B210390C4AA2FB0142C2F302120B4C6E
:10185000A25CC2655F2907D9094A1A400432826531
:10186000806D5DF8044B7047054A1A408265F7E7C2
:101870001000024028000240ABAAAAAA508C00081F
:1018800000FCFFFF83699BB9836A012B0AD0022BFE
:1018900002D00BB100207047C36A13F0807F2AD1B9
:1018A00000207047C36AB3F1C07F26D00020704784
:1018B000B3F5005F0AD0836A022B26D9032B26D109
:1018C000C36A13F0807F24D100207047836A032B02
:1018D00003D8DFE803F01404140A00207047C36A39
:1018E00013F0807F0DD100207047C36AB3F1C07F31
:1018F00009D0002070470120704701207047012067
:101900007047012070470120704701207047002078
:10191000704701207047000003682249224A934221
:1019200018BF8B4228D01432934225D014329342F0
:1019300022D0143293421FD0143293421CD014325E
:10194000934219D01432934216D0DAB2103A1749A2
:10195000A1FB0212120916491944A8291FD9154BD7
:1019600013449B000366144B436602F01F020123DD
:1019700003FA02F282667047DBB2083B0F4AA2FB11
:1019800003230F4A02EB1312920002660D4A4266CD
:10199000C3F30413012202FA03F38366704708328B
:1019A000DDE700BF085402581C540258ABAAAAAA8B
:1019B000F0FBFDBF0082001080080240CDCCCCCCF3
:1019C000009600168058025801794A1E072A2CD822
:1019D00030B40368154D164CA34218BFAB4218D063
:1019E0001434A34215D01434A34212D01434A342A9
:1019F0000FD01434A3420CD01434A34209D01434B1
:101A0000A34206D00B4B0B449B00C3660A4B0367F3
:101A100005E00A4B0B449B00C366094B0367012397
:101A200003FA02F2426730BC70477047085402580C
:101A30001C5402583F820010400902403F96001695
:101A40004059025870B50446FFF75EFD002C00F0C7
:101A5000B681054623685349534A934218BF8B42C7
:101A60000CBF0122002250D030318B424DD01831B2
:101A70008B424AD018318B4247D018318B4244D028
:101A800018318B4241D018318B423ED001F556714E
:101A90008B423AD018318B4237D018318B4234D038
:101AA00018318B4231D018318B422ED018318B42F5
:101AB0002BD018318B4228D018318B4225D03B498E
:101AC0003B4A934218BF8B4200F03181394A93421E
:101AD00000F02D811432934200F029811432934298
:101AE00000F025811432934200F021811432934298
:101AF00000F01D811432934200F019814023636588
:101B0000032384F8353001204AE0022184F835109F
:101B1000002184F834107ABB274A93422CD0183223
:101B2000934229D01832934226D01832934223D0C0
:101B30001832934220D0183293421DD002F55672CB
:101B4000934219D01832934216D01832934213D0D0
:101B50001832934210D0183293420DD0183293426B
:101B60000AD01832934207D01832934204D01A6830
:101B700022F001021A6003E01A6822F001021A60E2
:101B800023681A6812F0010F18D0FFF7BDFC431B41
:101B9000052BF5D920236365032384F83530012014
:101BA00070BD00BF100002402800024008540258D7
:101BB0001C54025830540258400002401A688148B0
:101BC0001040A168E2680A4321690A4361690A4337
:101BD000A1690A43E1690A43216A0A430243616A2F
:101BE000042900F099807849086878490140B1F1EA
:101BF000005F11D36168A1F12905A1F13F0003281D
:101C000088BF052D06D9A1F14700012802D94F3917
:101C1000032901D842F480121A602668756925F0FC
:101C20000705636A1D43042B08D1A36A1D43E36AB9
:101C300023B12046FFF726FE002872D175612046A9
:101C4000FFF7C6FDE36D03F01F023F23934083605F
:101C500023685F495F4A934218BF8B4242D01832D3
:101C600093423FD0183293423CD01832934239D03D
:101C70001832934236D01832934233D018329342FE
:101C800030D002F5567293422CD01832934229D0AC
:101C90001832934226D01832934223D018329342FE
:101CA00020D0183293421DD0183293421AD01832E5
:101CB000934217D0484A934214D01432934211D021
:101CC000143293420ED0143293420BD0143293420A
:101CD00008D01432934205D01432934202D0143209
:101CE000934213D12046FFF717FEA368802B59D0EB
:101CF000236E22791A60636EA26E5A606368013B9C
:101D0000072B52D90023E3662367636700206065D1
:101D1000012384F8353043E7E16A206B01430A432D
:101D200061E740236365012084F8350038E702222B
:101D300084F83520002284F834201A68274911409D
:101D4000A268402A2CD0802A27D00022E06842EAEC
:101D5000D002206942EAD002606942EAD002A0695A
:101D600042EAD002E06942EAD002206A42EA101256
:101D70000A431A6022681A4B13441A4AA2FB03232F
:101D80001B099B00E3652046FFF722FDE26D02F090
:101D90001F0101228A4042605AE74FF48042D5E792
:101DA0001022D3E700236360A2E72046FFF70CFE72
:101DB000E36E00221A60236F626F5A60A6E701206B
:101DC000EEE600BF3F8010FE0010005C0000FFFF49
:101DD0001000024028000240085402580F00FEFF85
:101DE000F8ABFDA7CDCCCCCC002800F03E8170B57F
:101DF000044690F83400012800F03981012084F86D
:101E0000340094F83500C0B2012807D04FF40063C5
:101E10006365002384F83430012070BD022084F80B
:101E20003500002060652068924E934DA84218BF8F
:101E3000B0422FD01835A8422CD01835A84229D04E
:101E40001835A84226D01835A84223D01835A84204
:101E500020D01835A8421DD005F55675A84219D0D6
:101E60001835A84216D01835A84213D01835A84204
:101E700010D01835A8420DD01835A8420AD0183510
:101E8000A84207D01835A84204D0056825F00105FE
:101E9000056003E0056825F0010505602046FFF7B1
:101EA000BDFB23687349744A934218BF8B4238D0F4
:101EB0001832934235D01832934232D018329342BE
:101EC0002FD0183293422CD01832934229D0183296
:101ED000934226D002F55672934222D01832934292
:101EE0001FD0183293421CD01832934219D01832A6
:101EF000934216D01832934213D01832934210D026
:101F0000183293420DD01A6822F00E0242F00A02F3
:101F10001A60236C93B12268136843F004031360C2
:101F20000CE01A6822F01E0242F016021A60236CBE
:101F300023B12268136843F00803136023684D49F6
:101F40004D4A934218BF8B4242D0183293423FD041
:101F5000183293423CD01832934239D0183293420F
:101F600036D01832934233D01832934230D002F533
:101F7000567293422CD01832934229D01832934291
:101F800026D01832934223D01832934220D01832F0
:101F900093421DD0183293421AD01832934217D070
:101FA000364A934214D01432934211D014329342E1
:101FB0000ED0143293420BD01432934208D0143214
:101FC000934205D01432934202D0143293420ED180
:101FD000236E1A6812F4803F03D01A6842F48072AC
:101FE0001A60E36E1BB11A6842F480721A602368AB
:101FF0002049214A934218BF8B4230D01832934275
:102000002DD0183293422AD01832934227D018325A
:10201000934224D01832934221D0183293421ED0DA
:1020200002F5567293421AD01832934217D01832E2
:10203000934214D01832934211D0183293420ED0EA
:10204000183293420BD01832934208D01832934280
:1020500005D01A6842F001021A600020DDE61A6815
:1020600042F001021A600020D7E6012070470220EA
:10207000D3E600BF10000240280002400854025876
:10208000002800F0298108B5024690F83530DBB20F
:10209000022B03D080234365012008BD03689048CC
:1020A00090498B4218BF83420CBF0121002166D0AA
:1020B0003030834263D01830834260D0183083427E
:1020C0005DD0183083425AD01830834257D0183030
:1020D000834254D000F55670834250D0183083426A
:1020E0004DD0183083424AD01830834247D0183040
:1020F000834244D01830834241D0183083423ED0CE
:10210000183083423BD0196821F00E011960136822
:10211000A0F5956073498B4218BF83426AD072491B
:102120008B4267D018318B4264D018318B4261D01A
:1021300018318B425ED018318B425BD018318B4204
:1021400058D001F556718B4254D018318B4251D082
:1021500018318B424ED018318B424BD018318B4204
:1021600048D018318B4245D018318B4242D01831BB
:102170008B423FD0196821F0010119603EE0042034
:1021800082F8350081BB584A93422DD018329342D1
:102190002AD01832934227D01832934224D01832D2
:1021A000934221D0183293421ED002F556729342C8
:1021B0001AD01832934217D01832934214D01832E2
:1021C000934211D0183293420ED0183293420BD062
:1021D0001832934208D01832934205D01A6822F080
:1021E00001021A60002058E71A6822F001021A6002
:1021F000002052E7196821F001011960136838487E
:1022000038498B4218BF834242D018318B423FD0AD
:1022100018318B423CD018318B4239D018318B4267
:1022200036D018318B4233D018318B4230D001F583
:1022300056718B422CD018318B4229D018318B42E9
:1022400026D018318B4223D018318B4220D0183140
:102250008B421DD018318B421AD018318B4217D0C7
:1022600022498B4214D014318B4211D014318B424D
:102270000ED014318B420BD014318B4208D0143164
:102280008B4205D014318B4202D014318B4217D1CE
:10229000116E0B6823F480730B60906DD36D03F0A7
:1022A0001F0101238B404360536E916E5960D36EC2
:1022B00033B1196821F480711960136F516F59603F
:1022C000012382F83530002382F83430136D2BB1AE
:1022D000104698470020E0E6012070470020DCE629
:1022E00010000240280002404000024008540258FA
:1022F000F0B583B00446002301937D4B1D687D4BF0
:10230000A3FB0535AD0A876D3E68D7F800C00368AA
:1023100079497A48834218BF8B420CBF01200020C4
:1023200061D0774A93425ED0183293425BD0183224
:10233000934258D01832934255D01832934252D01B
:10234000183293424FD002F5567293424BD0183256
:10235000934248D01832934245D01832934242D02B
:10236000183293423FD0183293423CD018329342F5
:1023700039D01832934236D06249634A934218BF2B
:102380008B4212D0614A93420FD0143293420CD048
:102390001432934209D01432934206D0143293423D
:1023A00003D01432934240F061821A68E16D01F06B
:1023B0001F010420884010EA0C0F00F0A78212F0E1
:1023C000040F00F0A382786012F4004F00F05A82EC
:1023D00012F4803F40F05082A36C002B00F0468244
:1023E0002046984742E2E26D02F01F0108228A402F
:1023F000324241D070BB424A93422BD018329342B2
:1024000028D01832934225D01832934222D0183265
:1024100093421FD0183293421CD002F55672934259
:1024200018D01832934215D01832934212D0183275
:1024300093420FD0183293420CD01832934209D0F5
:102440001832934206D01832934203D01A68C2F36E
:10245000C00202E01A68C2F380026AB11A6822F070
:1024600004021A60E36D03F01F0208239340BB606F
:10247000636D43F001036365E26D02F01F0226FA0B
:1024800002F313F0010F47D023681B481B498B420E
:1024900018BF83423CD018318B4239D018318B425F
:1024A00036D018318B4233D018318B4230D01831AE
:1024B0008B422DD018318B422AD001F556718B42B8
:1024C00026D018318B4223D018318B4220D01831BE
:1024D0008B421DD018318B421AD018318B4217D045
:1024E00018318B4214D018318B4211D01B6813E085
:1024F00000000024B5814E1B10000240280002405D
:1025000040000240085402581C54025830540258EB
:102510005B6913F0800F3BD1E36D03F01F030422CE
:1025200002FA03F3334240D02268964896498A4221
:1025300018BF824235D018318A4232D018318A42CF
:102540002FD018318A422CD018318A4229D0183124
:102550008A4226D018318A4223D001F556718A4228
:102560001FD018318A421CD018318A4219D0183134
:102570008A4216D018318A4213D018318A4210D0BC
:1025800018318A420DD018318A420AD013680CE003
:10259000012303FA02F2BA60636D43F0020363653C
:1025A000BAE7126812F0020F3DD1E36D03F01F038A
:1025B000102202FA03F333425FD022687148724955
:1025C0008A4218BF824234D018318A4231D0183141
:1025D0008A422ED018318A422BD018318A4228D014
:1025E00018318A4225D018318A4222D001F556711D
:1025F0008A421ED018318A421BD018318A4218D024
:1026000018318A4215D018318A4212D018318A42C4
:102610000FD018318A420CD018318A4209D0126882
:10262000C2F3800208E0BB60636D43F0040363659E
:10263000BBE71268C2F3C002FAB1BB6023681A6834
:1026400012F4802F0DD01B6813F4002F04D1236CDB
:102650009BB12046984710E0A36C73B12046984781
:102660000BE01A6812F4807F03D11A6822F0080286
:102670001A60236C0BB120469847E36D03F01F03EB
:10268000202202FA03F3334200F0928022683D4890
:102690003D498A4218BF82422ED018318A422BD03F
:1026A00018318A4228D018318A4225D018318A42FE
:1026B00022D018318A421FD018318A421CD001F52D
:1026C00056718A4218D018318A4215D018318A4280
:1026D00012D018318A420FD018318A420CD01831EA
:1026E0008A4209D018318A4206D018318A4203D072
:1026F0001268C2F3400202E01268C2F30012002A1C
:1027000056D0BB6094F83530DBB2042B0ED0236872
:102710001A6812F4802F39D01B6813F4002F2CD1C3
:10272000636C002B44D02046984741E02268136830
:1027300023F0160313602268536923F0800353616A
:10274000236CB3B12268136823F008031360E36DB0
:1027500003F01F023F239340BB60012384F8353010
:10276000002384F83430236D002B7FD02046984717
:102770007CE0A36C002BE5D1E9E7E36BC3B1204615
:10278000984715E010000240280002401A6812F431
:10279000807F09D11A6822F010021A60012384F8A0
:1027A0003530002384F83430E36B0BB12046984772
:1027B000636D002B5AD0636D13F0010F52D00423C8
:1027C00084F8353023689649964A934218BF8B4265
:1027D0002FD0183293422CD01832934229D018327D
:1027E000934226D01832934223D01832934220D0FD
:1027F000183293421DD002F55672934219D0183206
:10280000934216D01832934213D01832934210D00C
:10281000183293420DD0183293420AD018329342A4
:1028200007D01832934204D01A6822F001021A60CD
:1028300003E01A6822F001021A60019B0133019340
:10284000AB4204D823681B6813F0010FF5D123684D
:102850001B6813F0010F0BD0032384F835300023DD
:1028600084F83430E36C0BB12046984703B0F0BDD8
:10287000012384F83530F2E7236C002BF6D0204694
:102880009847F3E712F0200F3AD123686449654A6C
:10289000934218BF8B422FD0183293422CD018325B
:1028A000934229D01832934226D01832934223D033
:1028B0001832934220D0183293421DD002F556723E
:1028C000934219D01832934216D01832934213D043
:1028D0001832934210D0183293420DD018329342DE
:1028E0000AD01832934207D01832934204D01A68A3
:1028F00022F004021A6003E01A6822F008021A604B
:10290000236C002BB2D020469847AFE702208840C6
:1029100010EA0C0F60D012F0020F5DD0786012F454
:10292000004F0ED012F4803F05D1636C002B9DD078
:10293000204698479AE7E36B002B97D020469847AC
:1029400094E712F0200F40D123683549354A93426D
:1029500018BF8B422FD0183293422CD0183293429A
:1029600029D01832934226D01832934223D01832FD
:10297000934220D0183293421DD002F556729342F2
:1029800019D01832934216D01832934213D018320D
:10299000934210D0183293420DD0183293420AD08D
:1029A0001832934207D01832934204D01A6822F0AA
:1029B0000A021A6003E01A6822F014021A60012366
:1029C00084F83530002384F83430E36B002B3FF477
:1029D0004DAF2046984749E7082000FA01F111EA77
:1029E0000C0F3FF443AF12F0080F3FF43FAF1A68EB
:1029F00022F00E021A60E36D03F01F03012202FAB7
:102A000003F37B60626584F83520002384F834305A
:102A1000E36C002B3FF42AAF2046984726E700BF1F
:102A2000100002402800024090F835007047406DC9
:102A300070470000F0B583B000236BE085685E004E
:102A40000324B44025EA0405CC68B4402C438460D8
:102A5000446824EA0C0C4C68C4F300149C4044EA1B
:102A60000C04446068E0DD08083550F8256003F088
:102A700007044FEA840C0F2404FA0CF426EA040E2F
:102A80000C6904FA0CF444EA0E0440F825406BE0AB
:102A9000092400E0002404FA0EF42C430CF1020C8B
:102AA000694D45F82C404FF0B0442568D44325EAE1
:102AB00002064F6817F4801F01D042EA05064FF066
:102AC000B0452E606D6804EA05064F6817F4001FD4
:102AD00001D042EA05064FF0B0456E60D5F884504B
:102AE00004EA05064F6817F4003F01D042EA0506E4
:102AF0004FF0B045C5F88460D5F880502C404E6842
:102B000016F4803F01D042EA05044FF0B042C2F80B
:102B1000804001330A6832FA03F400F092804FF0EB
:102B2000010C0CFA03FC1CEA0202F2D04C6804F01F
:102B30000304013C012C81D94C6804F00304032CEC
:102B40000CD0C4685D004FF0030C0CFA05FC24EABD
:102B50000C0C8C68AC4044EA0C04C4604C6804F073
:102B60000304022C3FF47FAF04684FEA430E4FF09A
:102B7000030C0CFA0EFC24EA0C0C4C6804F0030461
:102B800004FA0EF444EA0C0404604C6814F4403F68
:102B9000BFD02E4CD4F8F45045F00205C4F8F450E0
:102BA000D4F8F44004F002040194019C4FEA930C21
:102BB0000CF10205244C54F8255003F003044FEAAD
:102BC000840E0F2404FA0EF425EA0405204CA042DA
:102BD0003FF460AF04F58064A04222D004F5806425
:102BE000A04220D004F58064A0421ED004F5806489
:102BF000A0421CD004F58064A0421AD004F5806481
:102C0000A04218D004F58064A04216D004F5806478
:102C1000A04214D004F58064A0423FF439AF0A24E6
:102C200039E7012437E7022435E7032433E7042496
:102C300031E705242FE706242DE707242BE7082496
:102C400029E703B0F0BD00BF00040058004402585B
:102C5000000002580AB18161704709048161704720
:102C6000436901EA030221EA030141EA0241816169
:102C7000704703689A6912F0020F01D000229A622D
:102C800003689A6912F0010F03D19A6942F00102B8
:102C90009A61704710B4019CC1F3090141EA0241F5
:102CA0001943214321F0004102685368640D04F484
:102CB000806444F07F7444F4583444F47F7444F0E6
:102CC000030423EA0404214351605DF8044B704778
:102CD000436B1D4A934217D01C4A934214D011F4FF
:102CE000004F2BD1002311F0010F01D043F0F2036C
:102CF00011F0020F01D043F0F403102920D0202955
:102D00000CD143F0200309E011F4004F0BD1002354
:102D100010290AD020290BD040290CD001680A685C
:102D200013430B607047B823F2E743F09003F1E7D9
:102D300043F06003F0E743F04003EFE7B823D2E746
:102D400043F09003DBE700BF35410008153F000862
:102D500011F0010F09D090F8413003F02803282B1F
:102D600001D0F22302E0422300E0002311F0020F21
:102D700009D043F0440C90F8412002F02802282AA0
:102D800010D043F0F40311F4004F0DD110290ED0F0
:102D900020290FD0402910D001680A6822EA0303D5
:102DA0000B6070476346EEE743F0B803EEE743F08D
:102DB0009003EDE743F02003ECE743F04003EBE73B
:102DC0002DE9F041044603689E6916F010067ED096
:102DD0000D4690461022DA6100263746236898692E
:102DE00010F0200F32D18FBBB5F1FF3FF6D0FEF7C8
:102DF0008BFBA0EB0800A84201D8002DEED1216882
:102E00004A6802F4804294F84230DBB2886910F4D8
:102E1000004F04D0203B18BF012302B973B92368C7
:102E20009B6913F0200FD9D1FEF76EFBA0EB0800D1
:102E30001928F4D946F020060127CFE74B6843F460
:102E400080434B60FEF760FB8046E8E70FB9202225
:102E5000DA6146F0040601252268936913F4807F45
:102E600005D046F001064FF48071D161012513F4BD
:102E7000806F06D046F0080622684FF48061D16169
:102E8000012513F4007F24D046F0020623684FF496
:102E90000072DA6101252046FFF7EBFE22685368D5
:102EA00023F0FF7323F48B3323F4FF7323F0010328
:102EB0005360636C1E436664202384F84130002312
:102EC00084F8423084F840302846BDE8F08100257F
:102ED000C2E7002DF8D0DEE770B504460D46164671
:102EE00023689B6913F0020F22D1324629462046FF
:102EF000FFF766FFF0B9B5F1FF3FF1D0FEF704FB35
:102F0000801BA84201D8002DEAD123689B6913F0E9
:102F1000020FE5D1636C43F020036364202384F83F
:102F20004130002384F8423084F84030012000E032
:102F3000002070BD0120FCE72DE9F04105460F4659
:102F4000164698462C68A46937EA04030CBF4FF074
:102F5000010C4FF0000CB44522D1B8F1FF3FF1D085
:102F6000FEF7D2FA069BC01A404502D8B8F1000F0E
:102F7000E8D12B689B6937EA03030CBF01230023C8
:102F8000B342DFD16B6C43F020036B64202385F8E0
:102F90004130002385F8423085F84030012000E0C0
:102FA0000020BDE8F08100002DE9F04182B0044628
:102FB00090461D46089E099F194B00934FF0807361
:102FC000EAB2FFF767FE3A4631462046FFF784FF34
:102FD000F8B9012D0ED123685FFA88F29A62009742
:102FE0003346002280212046FFF7A6FFA8B902B091
:102FF000BDE8F08123684FEA18229A623A463146CA
:103000002046FFF769FF30B923685FFA88F29A62B9
:10301000E5E70120EBE70120E9E70120E7E700BF52
:103020000020008070B504460D46164604E0236873
:103030009B6913F0200F12D023689B6913F0200FB7
:103040001BD1324629462046FFF7BAFEB8B9FEF733
:103050005BFA801BA842EAD8002DEDD1E7E7636C4C
:1030600043F020036364202384F84130002384F874
:10307000423084F84030012000E0002070BD012083
:10308000FCE70000002857D010B5044690F8413006
:10309000002B41D0242384F841302268136823F0A8
:1030A000010313606368226823F070631361226870
:1030B000936823F400439360E368012B31D0A36845
:1030C000226843F404439360E368022B2FD0226804
:1030D00051681A4B0B4353602268D36823F40043B2
:1030E000D360236962691343A169226843EA01231B
:1030F000D360E369216A22680B4313602268136876
:1031000043F00103136000206064202384F8413001
:10311000206384F8420010BD80F84030FEF702F8CA
:10312000B8E7A368226843F400439360CCE72368C0
:103130004FF400625A60CAE7012070470080000225
:1031400070B582B0044690F84100C0B2202840F02B
:103150008D800D4611462268926912F4004F40F0AE
:10316000888094F84020012A00F08580012284F8AC
:103170004020212284F84120102284F8422000229D
:103180006264616263853D4BE3623D4B6363638DC3
:103190009BB2FF2B27D9FF2323854FF08076228D0A
:1031A000002A4FD0A36B1BB3364ADA63A36B364AAF
:1031B000DA64A26B00231364A26B13652268238D6B
:1031C0002832A06BFEF710FE00B3202384F84130B4
:1031D000002284F84220636C43F01003636484F897
:1031E0004020012043E0638D23854FF00076D6E731
:1031F000202384F84130002284F84220636C43F09D
:103200008003636484F84020012030E01F4B00936A
:10321000334694F8282029462046FFF73BFD638D6E
:103220009BB2228D9B1A9BB26385002384F84030A9
:1032300010212046FFF74CFD2268136843F48043B9
:10324000136011E0124B6363104B00934FF0007357
:10325000D2B229462046FFF71DFD002384F84030F6
:1032600001212046FFF734FD002000E0022002B0DB
:1032700070BD0220FBE70220F9E700BF0000FFFF5E
:1032800035410008B1430008794200080020008061
:10329000933D00082DE9F04F83B00D46BDF834A0F2
:1032A0000E9F90F84110C9B2202940F0BC8004461E
:1032B000904699460C9BBAF1000F18BF002B16D010
:1032C00090F84030012B00F0B2804FF0010B80F8F5
:1032D00040B0FEF719F90646009019235A464FF4FC
:1032E00000412046FFF728FE30B101209CE04FF45A
:1032F00000734364012097E0212384F84130402388
:1033000084F84230002363640C9A6262A4F82AA015
:103310006363019600974B46424629462046FFF7D5
:1033200043FE70B9638D9BB2FF2B0FD9FF2222851C
:10333000002300934FF0807329462046FFF7AAFC34
:1033400021E0002384F8403058466DE0628D92B24F
:103350002285002300934FF00073D2B22946204605
:10336000FFF798FC0FE0628D92B222850023009354
:103370004FF00073D2B229462046FFF78BFC638DD5
:103380009BB2002B33D0324639462046FFF7A4FDCE
:1033900000284ED1626A236812789A62636A013308
:1033A0006362638D9BB2013B9BB26385238D013BBE
:1033B0009BB22385628D92B2002AE0D0002BDED131
:1033C00000963B46002280212046FFF7B5FD90BBCA
:1033D000638D9BB2FF2BC6D9FF2222850023009369
:1033E0004FF0807329462046FFF754FCC7E732466A
:1033F00039462046FFF716FEF8B923682022DA6125
:1034000021684B6823F0FF7323F48B3323F4FF739D
:1034100023F001034B6084F84120002384F84230FC
:1034200084F8403000E0022003B0BDE8F08F0220B5
:10343000FAE70120F8E70120F6E70120F4E70000B1
:10344000F0B583B004460E461F460899BDF82430F7
:1034500090F84100C0B220287AD1002B18BF002973
:1034600049D02068856915F4004F75D194F8405013
:10347000012D73D0012584F84050212584F8415056
:10348000402584F842500025656461626385344BB1
:10349000E362344B6363E664638D9BB2FF2B2FD9E9
:1034A000FF232385012F2ED0130A8362D2B2226517
:1034B000A36B002B2DD02C4ADA63A36B2B4ADA6462
:1034C000A26B00231364A26B13652268238D28323C
:1034D000A06BFEF789FC054648B3202384F84130F1
:1034E000002284F84220636C43F01003636484F884
:1034F000402001252DE04FF400736364012528E08E
:10350000638D2385CEE7D2B282624FF0FF3323650D
:10351000CEE7202384F84130002284F84220636CF7
:1035200043F08003636484F84020012511E0104BD0
:1035300000934FF08073FAB231462046FFF7AAFBA2
:10354000002384F8403001212046FFF7C1FB00E052
:103550000225284603B0F0BD0225FAE70225F8E768
:103560000000FFFF0D440008B14300087942000845
:103570000020008008B5036899691A68436B03B19D
:10358000984708BD704738B50446002380F842309C
:1035900090F84130DBB2212B0FD0202380F841304E
:1035A00012230363002545630221FFF7D1FB84F852
:1035B00040502046FFF7E6FF38BD202380F8413019
:1035C00011230363002545630121FFF7C1FB84F844
:1035D0004050204603F0B6FBEEE77047704710B549
:1035E000044603681A68002180F8421012F4804FE4
:1035F0000ED01A6822F480421A6094F84130DBB28F
:10360000292B0DD094F84130DBB22A2B18D010BDF5
:1036100012F4004FF1D01A6822F400421A60ECE76D
:10362000282384F841302123236301212046FFF71A
:103630008FFB002384F840302046FFF7CEFFE6E7FB
:10364000282384F841302223236302212046FFF7F8
:103650007FFB002384F840302046FFF7BFFFD6E70A
:103660007047F8B5044690F8413003F02803282B42
:1036700006D003680822DA61002380F84030F8BDE4
:1036800003689E69C6F300469A69120C02F0FE05B3
:103690009A68C2F30902DF6807F0FE07C1680229D1
:1036A00022D185EAD21515F0060F10D1816C0131B7
:1036B0008164816C0229E2D1002181640820D861F3
:1036C00084F8401031462046FFF7CAFFD7E74FF491
:1036D0000041FFF73DFB002384F840303A46314675
:1036E0002046FFF7BDFFCAE74FF40041FFF730FB6C
:1036F000002384F840302A4631462046FFF7B0FFC9
:10370000BDE7704710B50446174BC362002303633F
:10371000202280F8412080F84230436311F0040FEA
:1037200013D003685A6A436A1A70436A01334362CA
:10373000038D53B1013B0385438D9BB2013B9BB28B
:103740004385436C43F00403436448F2030120467D
:10375000FFF7FEFA23681022DA61002384F8403074
:103760002046FFF7CEFF10BD0000FFFF70477047F7
:10377000704708B590F84130DBB2602B06D00023CB
:10378000036380F84030FFF7F2FF08BD202380F884
:1037900041300023036380F84030FFF7E9FFF4E78E
:1037A00010B5044690F84130002084F84200454AA4
:1037B000E2626085626C0A436264283BDBB2022BE2
:1037C0002DD803212046FFF7C3FA282384F841307F
:1037D0003D4B6363236BA26B002A49D0212B18BF9A
:1037E000112B45D123681A6812F4804F03D01A6850
:1037F00022F480421A60A06BFFF716F9012833D03B
:10380000A36B324A1A65002384F84030A06BFEF7A0
:1038100037FC002855D0A06B036D984751E048F263
:1038200003012046FFF794FA2046FFF722FA94F8A6
:103830004130DBB2602B14D0202384F84130236860
:103840009A6912F0200F0CD09A6912F0100F05D06F
:103850001022DA61636C43F004036364236820225E
:10386000DA6100236363B5E72046FFF782FF28E0B3
:10387000E26B1AB3222B18BF122B1FD123681A68D0
:1038800012F4004F03D01A6822F400421A60E06B71
:10389000FFF7CAF801280DD0E36B0C4A1A65002324
:1038A00084F84030E06BFEF7EBFB50B1E06B036D4A
:1038B000984706E02046FFF75CFF02E02046FFF74E
:1038C00058FF10BD0000FFFF153B0008A145000890
:1038D00070B504460D460268166890F84130DBB2B8
:1038E0002021D161292B18BF212B57D02A2B18BF9B
:1038F000222B5AD02268536843F400435360226855
:10390000536823F0FF7323F48B3323F4FF7323F006
:10391000010353602046FFF7ACF916F4804F00F026
:1039200085802268136823F480431360A36B002B07
:1039300045D01B687449754A934218BF8B423BD0EF
:103940001832934238D01832934235D0183293420D
:1039500032D0183293422FD0183293422CD01832E2
:10396000934229D002F55672934225D018329342E1
:1039700022D0183293421FD0183293421CD01832F2
:10398000934219D01832934216D01832934213D072
:103990001832934210D05B689BB20FE048F20101ED
:1039A000FFF7D6F921232363A4E748F20201FFF7CA
:1039B000CFF9222323639DE75B689BB2638515F0F3
:1039C000040F11D025F0040523685A6A636A1A703F
:1039D000636A01336362238D33B1013B2385638DB9
:1039E0009BB2013B9BB26385638D9BB21BB1636C41
:1039F00043F004036364002384F842306363636C20
:103A0000002B57D1E36A13F5803F61D194F8413020
:103A1000DBB2222B6CD0202384F8413000232363B7
:103A200084F840302046FFF7D8FD60E016F4004FE0
:103A3000C5D02268136823F400431360E36B002BA6
:103A4000BDD01B683049314A934218BF8B422DD0FC
:103A5000183293422AD01832934227D01832934218
:103A600024D01832934221D0183293421ED01832FB
:103A700093421BD002F55672934217D018329342EC
:103A800014D01832934211D0183293420ED018320B
:103A900093420BD01832934208D01832934205D08B
:103AA0001832934202D05B689BB201E05B689BB224
:103AB000638584E7616C2046FFF772FE94F841301D
:103AC000DBB2282B13D129462046FFF71BFE0EE060
:103AD0002046FFF784FD0E4BE362202384F841303B
:103AE0000023236384F840302046FFF70AFE70BDB0
:103AF000202384F841300023236384F8403020469B
:103B0000FFF76CFDF3E700BF100002402800024001
:103B10000000FFFFF8B5C76A90F84030012B00F0B5
:103B20009F8004460D461646012380F8403011F070
:103B3000200F02D012F0200F19D115F0100F3FD036
:103B400016F0100F3CD0638D9BB243BB94F841300C
:103B5000DBB2282B0ED094F84130DBB2292B11D0E8
:103B600023681022DA61002084F84000F8BDFFF7D6
:103B7000AFFEE2E7B7F1007FEDD129462046FFF71F
:103B8000C1FDF0E717F5803FEAD023681022DA6123
:103B90002046FFF76EF82046FFF721FDE3E7236894
:103BA0001022DA61636C43F004036364B7F1807F31
:103BB00018BF002FD7D1616C2046FFF7F1FDD2E787
:103BC00015F0040F1FD016F0040F1CD0638D9BB2AC
:103BD00073B123685A6A636A1A70636A0133636255
:103BE000238D013B2385638D9BB2013B9BB2638593
:103BF000638D9BB2002BB6D117F5803FB3D0204622
:103C0000FFF7EDFCAFE715F0080F02D016F0080F34
:103C100018D115F0020FA6D016F0020FA3D0638DB5
:103C20009BB2A3B1626A236812789A62636A013315
:103C30006362638D9BB2013B9BB26385238D013B25
:103C4000238590E729462046FFF70BFD8BE7002FE1
:103C500018BFB7F1807F86D12046FFF7C0FC82E70E
:103C6000022083E730B583B004460D460368202266
:103C7000DA6190F84130DBB2212B33D090F841303B
:103C8000DBB2222B34D02268536823F0FF7323F475
:103C90008B3323F4FF7323F001035360002363632A
:103CA000A3F58033E36215F0100F06D023681022CD
:103CB000DA61636C43F00403636494F84130DBB26F
:103CC000602B1BD02046FEF7D4FF626C94F8413085
:103CD000DBB2602B00D0D2B1616C2046FFF760FDF3
:103CE00003B030BD0121FFF733F811232363CAE786
:103CF0000221FFF72DF812232363C4E715F0040F08
:103D0000E0D023685B6ADBB20193019BDAE794F8A9
:103D10004130DBB2212B17D094F84130DBB2222B9B
:103D2000DED1202384F841300023236394F842300D
:103D3000DBB2402B24D0002384F8423084F840309A
:103D40002046FFF71FFCCBE7202384F841300023F7
:103D5000236394F84230DBB2402B08D0002384F870
:103D6000423084F84030204602F0ECFFB8E70023F0
:103D700084F8423084F84030204603F003F8AFE77F
:103D8000002384F8423084F840302046FFF7EEFCF0
:103D9000A6E790F84030012B00F0B98070B582B0F2
:103DA00004460D461646012380F8403011F0100FEE
:103DB00002D012F0100F22D115F0040F29D016F006
:103DC000040F26D025F0040523685A6A636A1A7026
:103DD000636A01336362238D013B2385638D9BB24C
:103DE000013B9BB2638515F0200F03D016F0200F26
:103DF00040F08880002084F8400002B070BD036865
:103E00001022DA61436C43F004034364FEF731FF90
:103E1000E9E715F0020F12D016F0020F0FD0626A18
:103E2000236812789A62636A01336362238D013BCF
:103E30002385638D9BB2013B9BB26385D3E715F06D
:103E4000800F3FD016F0400F3CD0638D9BB25BB328
:103E5000238D4BBB23685968C1F30901638D9BB265
:103E6000FF2B0ED8628D92B22285E36A13F5803F54
:103E700011D0E36A00200090D2B22046FEF70AFF7C
:103E8000B1E7FF222285002300934FF08073204684
:103E9000FEF700FFA7E7002300934FF00073D2B2B4
:103EA0002046FEF7F7FE9EE723685B6813F0007F6D
:103EB00003D12046FFF767FB95E740212046FFF737
:103EC0006FFC90E715F0400F8DD016F0400F8AD0B0
:103ED000638D9BB28BB923685A6812F0007F82D140
:103EE000E26A12F5803F04D15A6842F480425A6077
:103EF00079E72046FFF747FB75E740212046FFF7AB
:103F00004FFC70E729462046FFF7ACFE72E702201F
:103F100070470000F8B5C76A90F84030012B00F0F8
:103F2000038104460D461646012380F8403011F007
:103F3000200F02D012F0200F4DD115F0100F00F01D
:103F4000E48016F0100F00F0E080C6F3803216F423
:103F5000804F03D116F4004F00F0D380E36B002BA9
:103F600044D016F4004F43D01B68704870498B4210
:103F700018BF834232D018318B422FD018318B4278
:103F80002CD018318B4229D018318B4226D01831D1
:103F90008B4223D018318B4220D001F556718B42D1
:103FA0001CD018318B4219D018318B4216D01831E1
:103FB0008B4213D018318B4210D018318B420DD068
:103FC00018318B420AD018318B4207D05B68B3FAA4
:103FD00083F35B0906E0FFF77BFCAEE75B68B3FAAF
:103FE00083F35B09002B40D1002102E0002100E0B7
:103FF0000021A36B002B3FD0002A3DD01B684B480B
:104000004B4A934218BF834231D0183293422ED08C
:10401000183293422BD01832934228D01832934250
:1040200025D01832934222D0183293421FD002F585
:10403000567293421BD01832934218D018329342D2
:1040400015D01832934212D0183293420FD0183242
:1040500093420CD01832934209D01832934206D0C2
:104060005B68B3FA83F35B0905E00121C1E75B6894
:10407000B3FA83F35B09D3B9C9B923681022DA61B3
:10408000636C43F00403636494F84130DBB2B7F12E
:10409000807F18BF002F3ED1292B18BF212B29D19B
:1040A00021232363616C2046FFF77AFB33E094F809
:1040B0004130DBB2282B08D094F84130DBB2292BF9
:1040C0000BD023681022DA6125E0B7F1007FF3D12D
:1040D00029462046FFF716FB1DE017F5803FF0D07C
:1040E00023681022DA612046FEF7C3FD2046FFF761
:1040F00076FA10E02A2B18BF222BD3D12223236378
:10410000D0E723681022DA6105E015F0080F02D02D
:1041100016F0080F03D1002084F84000F8BD2946AE
:104120002046FFF79EFAF6E70220F7E7100002406C
:104130002800024090F84030012B00F09A8010B522
:1041400082B00446012380F8403011F0100F02D0F5
:1041500012F0100F32D111F0800F60D012F0400F2A
:104160005DD02268136823F040031360638D9BB217
:10417000002B46D023685968C1F30901638D9BB2B7
:10418000FF2B2DD9FF2323854FF08073002200924F
:1041900094F828202046FEF77DFD638D9BB2228D8A
:1041A0009B1A9BB2638594F84130DBB2222B22D05C
:1041B0002268136843F4804313600CE00368102204
:1041C000DA61436C43F0040343642021FEF780FD71
:1041D0002046FEF74EFD002084F8400002B010BDDE
:1041E000638D2385E36A13F5803F01D0E36ACDE751
:1041F0004FF00073CAE72268136843F4004313606A
:10420000E9E723685B6813F0007F03D12046FFF7DE
:10421000BAF9E0E740212046FFF7C2FADBE711F0E8
:10422000400F1CD012F0400F19D0638D9BB28BB998
:1042300023685A6812F0007FCDD1E26A12F5803F00
:1042400004D15A6842F480425A60C4E72046FFF71E
:104250009AF9C0E740212046FFF7A2FABBE711F028
:10426000200FB8D012F0200FB5D02046FFF7FAFC8F
:10427000B1E702207047000038B5846BA36B002BB8
:1042800077D01B684849494A934218BF8B422FD0C8
:10429000183293422CD01832934229D018329342CC
:1042A00026D01832934223D01832934220D01832AD
:1042B00093421DD002F55672934219D018329342A0
:1042C00016D01832934213D01832934210D01832BD
:1042D00093420DD0183293420AD01832934207D03D
:1042E0001832934204D05B68B3FA83F35B0903E0AE
:1042F0005B68B3FA83F35B09002B3CD10025E36BC9
:10430000002B40D01B682849284A934218BF8B4293
:1043100033D01832934230D0183293422DD0183215
:1043200093422AD01832934227D01832934224D095
:104330001832934221D002F5567293421DD01832A2
:1043400093421AD01832934217D01832934214D0A5
:104350001832934211D0183293420ED01832934241
:104360000BD01832934208D05B68B3FA83F35B0931
:1043700007E00025C3E70125C1E75B68B3FA83F3D3
:104380005B0903B10125FEF752FB022800D005B9F5
:1043900038BD2268536843F400435360102120461F
:1043A000FFF7FEF9F4E700BF1000024028000240CA
:1043B00010B5846B2268136823F480431360638D07
:1043C0009BB2ABB1238D616A19446162638D9BB26C
:1043D000FF2B12D9FF2323852268238D2832A06B5F
:1043E000FDF702FD60B110212046FFF7D9F910BD9D
:1043F00020212046FEF76CFCF9E7638D2385EBE76F
:1044000040212046FEF764FCF1E7000090F84030C0
:10441000012B00F0BE8010B582B00446012380F865
:10442000403011F0100F02D012F0100F10D111F027
:10443000020F1BD012F0020F18D02368226D9A626F
:104440004FF0FF332365002084F8400002B010BD18
:1044500003681022DA61436C43F0040343642021B3
:10446000FEF736FC2046FEF704FCECE711F0800F67
:1044700002D012F0400F2AD111F0400F7DD012F07F
:10448000400F7AD094F84130DBB2222B60D0424802
:10449000638D9BB2FF2B5DD9FF222285E16C0090DA
:1044A0004FF0807389B22046FEF7F4FB638D9BB218
:1044B000228D9B1A9BB2638594F84130DBB2222B8C
:1044C00055D02268136843F480431360BBE7102182
:1044D0002046FEF7FDFB638D9BB2002B33D0638D2E
:1044E0009BB2FF2B1BD9FF222285E16C0023009396
:1044F0004FF0807389B22046FEF7CCFB638D9BB2F0
:10450000228D9B1A9BB2638594F84130DBB2222B3B
:1045100013D02268136843F48043136093E7628DDD
:1045200092B22285E16C002300934FF00073D2B267
:1045300089B22046FEF7AEFBE0E72268136843F439
:10454000004313607FE740212046FFF729F97AE70F
:1045500012489DE7628D92B22285E16C00904FF087
:104560000073D2B289B22046FEF794FB9EE7226820
:10457000136843F40043136065E711F0200F3FF424
:1045800062AF12F0200F3FF45EAF2046FFF76AFBE8
:1045900059E70220704700BF0020008000240080FF
:1045A00008B5806B836B0BB100221A65C36B0BB12E
:1045B00000221A65FFF7DDF808BD90F84130DBB244
:1045C000202B24D190F84030012B22D0012380F8F9
:1045D0004030242380F841300268136823F001033F
:1045E00013600268136823F4805313600268136831
:1045F000194311600268136843F00103136020231C
:1046000080F84130002380F840301846704702207F
:1046100070470220704790F84130DBB2202B22D146
:1046200090F84030012B20D0012380F84030242323
:1046300080F841300268136823F0010313600268B8
:10464000136823F4706343EA012111600268136860
:1046500043F001031360202380F84130002380F8E9
:104660004030184670470220704702207047000013
:10467000134BDB6813F0040F07D1114BDB6803F019
:10468000070383421AD00120704710B50C4AD36843
:1046900023F007031843D060FCF736FF0446084BAD
:1046A0005B6813F4005F07D1FCF72EFF001BB0F529
:1046B0007A7FF4D9012000E0002010BD002070476F
:1046C00000480258002800F0398338B504460368D2
:1046D00013F0010F25D0944A136903F03803926A4E
:1046E000102B15D0182B0FD06368B3F5803F3FD047
:1046F000002B53D18C4B1A6822F480321A601A684E
:1047000022F480221A6038E002F00302022AEBD180
:10471000854B1B6813F4003F03D06368002B00F047
:104720000F83236813F0020F00F0A1807E4A136903
:10473000926A13F038035AD0182B55D0E368002B37
:1047400000F0DE8078490A6822F0190213430B60FA
:10475000FCF7DAFE0546744B1B6813F0040F40F0BB
:10476000AD80FCF7D1FE401B0228F4D90320EEE215
:104770006D4A136843F48033136063682BB3FCF70E
:10478000C3FE0546684B1B6813F4003FC9D1FCF714
:10479000BBFE401B6428F5D90320D8E2B3F5A02F57
:1047A00009D0614B1A6822F480321A601A6822F428
:1047B00080221A60E1E75C4B1A6842F480221A609A
:1047C0001A6842F480321A60D7E7FCF79DFE05466E
:1047D000554B1B6813F4003FA3D0FCF795FE401B1C
:1047E0006428F5D90320B2E212F0030FA6D14E4B94
:1047F0001B6813F0040F03D0E368002B00F0A282C3
:10480000494A136823F01903E1680B431360FCF76E
:104810007BFE0546444B1B6813F0040F06D1FCF7E2
:1048200073FE401B0228F5D9032090E2FCF786FEB8
:1048300041F20303984212D82269402A07D03A492C
:104840004B6823F47C3343EA02334B600FE0364A73
:10485000536823F47C3343F40033536007E0324A57
:10486000536823F0FE43216943EA016353602368E0
:1048700013F0100F00F088802B4A136903F03803FF
:10488000926A082B56D0182B50D0E369002B00F009
:10489000B880254A136843F080031360FCF734FEA8
:1048A0000546214B1B6813F4807F40F08880FCF79D
:1048B0002BFE401B0228F4D9032048E2FCF73EFE01
:1048C00041F20303984212D82269402A07D01649C0
:1048D0004B6823F47C3343EA02334B60C7E7124A48
:1048E000536823F47C3343F400335360BFE70E4A2C
:1048F000536823F0FE43216943EA01635360B6E73E
:10490000094A136823F001031360FCF7FDFD054617
:10491000054B1B6813F0040FA9D0FCF7F5FD401BF5
:104920000228F5D9032012E20044025802F00302E3
:10493000012AAAD1A14B1B6813F4807F03D0E3693D
:10494000802B40F00182FCF7F9FD41F2030398420D
:1049500012D8226A202A07D098494B6823F0F843DE
:1049600043EA82634B600FE0944A536823F0F843B4
:1049700043F08043536007E0904AD36823F07C53B0
:10498000216A43EA0163D360236813F0080F60D003
:104990006369002B49D0894A536F43F00103536781
:1049A000FCF7B2FD0546854B5B6F13F0020F50D14B
:1049B000FCF7AAFD401B0228F5D90320C7E1FCF74C
:1049C000BDFD41F20303984212D8226A202A07D083
:1049D0007A494B6823F0F84343EA82634B60D3E79C
:1049E000764A536823F0F84343F080435360CBE7A3
:1049F000724AD36823F07C53216A43EA0163D3608F
:104A0000C2E76E4A136823F080031360FCF77CFD55
:104A100005466A4B1B6813F4807FB5D0FCF774FD24
:104A2000401B0228F5D9032091E1644A536F23F01B
:104A300001035367FCF768FD0546604B5B6F13F09D
:104A4000020F06D0FCF760FD401B0228F5D90320B9
:104A50007DE1236813F0200F29D0A3699BB1574A49
:104A6000136843F480531360FCF74EFD0546534B27
:104A70001B6813F4005F1AD1FCF746FD401B0228A7
:104A8000F5D9032063E14D4A136823F48053136082
:104A9000FCF73AFD0546494B1B6813F4005F06D04E
:104AA000FCF732FD401B0228F5D903204FE12368B3
:104AB00013F0040F21D1636A002B00F047813F4AB5
:104AC000126902F03802182A00F0EE80022B79D029
:104AD0003A4A136823F080731360FCF715FD04460F
:104AE000364B1B6813F0007F00F0DC80FCF70CFDF8
:104AF000001B0228F4D9032029E1314A136843F44A
:104B000080731360FCF700FD05462D4B1B6813F402
:104B1000807F06D1FCF7F8FC401B6428F5D9032000
:104B200015E1A368012B0AD00BBB244B1A6F22F0AE
:104B300001021A671A6F22F004021A6704E01F4A82
:104B4000136F43F001031367A36833B3FCF7DCFC76
:104B500005461A4B1B6F13F0020FACD1FCF7D4FCC7
:104B6000401B41F288339842F3D90320EFE0052B34
:104B700009D0124B1A6F22F001021A671A6F22F045
:104B800004021A67E0E70D4B1A6F42F004021A673D
:104B90001A6F42F001021A67D6E7FCF7B5FC05462A
:104BA000064B1B6F13F0020F85D0FCF7ADFC401BCA
:104BB00041F288339842F3D90320C8E000440258F8
:104BC00000480258694A136823F080731360FCF7A9
:104BD0009BFC0546654B1B6813F0007F06D0FCF775
:104BE00093FC401B0228F5D90320B0E05F4B996A83
:104BF0005F4A0A40A16AE06A41EA00110A439A62E8
:104C0000226B013AC2F30802616B0139490289B291
:104C10000A43A16B0139090401F4FE010A43E16B67
:104C20000139090601F0FE410A431A63DA6A22F0EB
:104C30000102DA62596B4F4A0A40A16C42EAC10292
:104C40005A63DA6A22F00C02216C0A43DA62DA6AE9
:104C500022F00202616C0A43DA62DA6A42F48032BC
:104C6000DA62DA6A42F40032DA62DA6A42F4802204
:104C7000DA62DA6A42F00102DA621A6842F080729D
:104C80001A60FCF741FC0446384B1B6813F0007FA8
:104C900006D1FCF739FC001B0228F5D9032056E0A9
:104CA000002054E0002052E0304A916A106B012B42
:104CB0004ED001F00303A26A93424BD1C1F3051118
:104CC000E36A994248D1C0F30802236B013B9A4240
:104CD00044D1C0F34622636B013B9A4240D1C0F3FA
:104CE0000642A36B013B9A423CD1C0F30660E36BE2
:104CF000013B984238D11D4B5B6BC3F3CC03A26CD4
:104D00009A4201D1002022E0184AD36A23F001031D
:104D1000D362FCF7F9FB0546FCF7F6FBA842FBD093
:104D2000124A516B134B0B40A16C43EAC10353630E
:104D3000D36A43F00103D362002008E001207047EA
:104D4000012004E0012002E0012000E0002038BD45
:104D50000120FCE70120FAE70120F8E70120F6E74F
:104D60000120F4E70120F2E70120F0E700440258B7
:104D70000CFCFFFF0700FFFF744B1B6903F03803B7
:104D8000102B00F0DE80182B10D00BB1704870474C
:104D90006E4B1B6813F0200F00F0D5806B4B18682A
:104DA000C0F3C1006B4B23FA00F0704710B4674AA0
:104DB000916A01F00301946AC4F30510D36A03F009
:104DC000010C536BC3F3CC030CFB03F307EE903AD7
:104DD000F8EE677A14F47C7F00F09380012965D0A7
:104DE000022900F09180E1B107EE100AF8EE476A5F
:104DF0009FED596A86EE267A544B1B6BC3F308036A
:104E000006EE903AF8EE666A9FED546A67EE867A8F
:104E100076EEA77AF7EE006A77EEA67A27EE277A83
:104E200060E0136813F0200F23D011461268C2F31C
:104E3000C102484BD34007EE103AF8EE476A07EE3E
:104E4000100AB8EE476A86EE867A0B6BC3F3080346
:104E500006EE903AF8EE666A9FED406A67EE867A53
:104E600076EEA77AF7EE006A77EEA67A27EE277A33
:104E700038E007EE100AF8EE476A9FED396A86EED1
:104E8000267A324B1B6BC3F3080306EE903AF8EE1A
:104E9000666A9FED326A67EE867A76EEA77AF7EE5B
:104EA000006A77EEA67A27EE277A1BE007EE100A53
:104EB000F8EE476A9FED286A86EE267A234B1B6B35
:104EC000C3F3080306EE903AF8EE666A9FED236A94
:104ED00067EE867A76EEA77AF7EE006A77EEA67A24
:104EE00027EE277A194B1B6BC3F34623013307EEDA
:104EF000903AF8EE677AC7EE276AFCEEE67A17EE8C
:104F0000900A5DF8044B704707EE100AF8EE476A06
:104F10009FED146A86EE267A0C4B1B6BC3F30803D5
:104F200006EE903AF8EE666A9FED0C6A67EE867AB6
:104F300076EEA77AF7EE006A77EEA67A27EE277A62
:104F4000D0E7094870470348704700BF0044025843
:104F500000093D000090D0030024744A000000398D
:104F60000024744C20BCBE4B40787D01002800F02A
:104F7000328170B50D4604469B4B1B6803F00F034E
:104F80008B420BD2984A136823F00F030B43136034
:104F9000136803F00F038B4240F01F81236813F066
:104FA000040F0CD02269914B9B6903F070039A4265
:104FB00005D98E498B6923F070031A438A612368EF
:104FC00013F0080F0CD06269884BDB6903F07003A3
:104FD0009A4205D98549CB6923F070031A43CA6107
:104FE000236813F0100F0CD0A269804BDB6903F427
:104FF000E0639A4205D97D49CB6923F4E0631A4303
:10500000CA61236813F0200F0CD0E269774B1B6A4A
:1050100003F070039A4205D974490B6A23F07003B8
:105020001A430A62236813F0020F0CD0E2686F4B38
:105030009B6903F00F039A4205D96C498B6923F0F1
:105040000F031A438A61236813F0010F41D0674AA6
:10505000936923F47063A1680B4393616368022B27
:105060000AD0032B27D0012B2CD0604A126812F0F3
:10507000040F06D10120ADE0126812F4003F00F0E9
:10508000AE805A490A6922F0070213430B61FCF70C
:105090003BFA0646554B1B6903F038036268B3EBD5
:1050A000C20F16D0FCF730FA801B41F288339842C9
:1050B000F0D903208EE04D4A126812F0007FE0D153
:1050C000012087E0494A126812F4807FD9D101207B
:1050D00080E0236813F0020F0CD0E268434B9B6919
:1050E00003F00F039A4205D240498B6923F00F0366
:1050F0001A438A613C4B1B6803F00F03AB420AD989
:10510000394A136823F00F032B431360136803F02D
:105110000F03AB4265D1236813F0040F0CD0226952
:10512000324B9B6903F070039A4205D22F498B6979
:1051300023F070031A438A61236813F0080F0CD020
:1051400062692A4BDB6903F070039A4205D2274952
:10515000CB6923F070031A43CA61236813F0100F60
:105160000CD0A269214BDB6903F4E0639A4205D2BB
:105170001E49CB6923F4E0631A43CA61236813F024
:10518000200F0CD0E269194B1B6A03F070039A429E
:1051900005D216490B6A23F070031A430A62FFF71F
:1051A000EBFD12498B69C3F30323114AD35C03F06F
:1051B0001F03D8408B6903F00F03D35C03F01F0378
:1051C00020FA03F30B4A13600B4B18600B4B186863
:1051D000FCF738F970BD012070470120FAE7012083
:1051E000F8E70120F6E700BF002000520044025813
:1051F000408C000804000024000000240C0000245F
:1052000008B5FFF7B9FD0B4A9369C3F303230A49B5
:10521000CB5C03F01F0320FA03F3926902F00F0244
:10522000885C00F01F0023FA00F0044A1060044A72
:10523000136008BD00440258408C0008040000249C
:105240000000002408B5FFF7DBFF054BDB69C3F363
:105250000213044AD35C03F01F03D84008BD00BF0B
:1052600000440258408C000808B5FFF7C9FF054B01
:10527000DB69C3F30223044AD35C03F01F03D84065
:1052800008BD00BF00440258408C0008404B9B6A98
:1052900003F00303032B79D070B505460E463C4A54
:1052A000136823F080631360FCF72EF90446384B33
:1052B0001B6813F0006F06D0FCF726F9031B022BC6
:1052C000F5D9032070BD324B9A6A22F47C322968EA
:1052D00042EA01329A626A68013AC2F30802A96896
:1052E0000139490289B20A43E9680139090401F424
:1052F000FE010A4329690139090601F0FE410A430A
:105300009A63DA6A22F0C00269690A43DA62DA6AE9
:1053100022F02002A9690A43DA62DA6A22F0100256
:10532000DA62D96B1B4A0A40E96942EAC102DA63D0
:10533000DA6A42F01002DA62C6B91A46DB6A43F44E
:105340000023D362124A136843F080631360FCF7B2
:10535000DBF804460E4B1B6813F0006F14D1FCF70A
:10536000D3F8001B0228F5D90320ABE7012E05D0A6
:10537000074AD36A43F40013D362E3E7044AD36ACB
:1053800043F48013D362DDE700209BE701207047E0
:10539000004402580700FFFF404B9B6A03F00303E1
:1053A000032B79D070B505460E463C4A136823F0AE
:1053B00080531360FCF7A8F80446384B1B6813F0C1
:1053C000005F06D0FCF7A0F8031B022BF5D90320E1
:1053D00070BD324B9A6A22F07C72296842EA01520F
:1053E0009A626A68013AC2F30802A968013949025F
:1053F00089B20A43E9680139090401F4FE010A434C
:1054000029690139090601F0FE410A431A64DA6A82
:1054100022F4406269690A43DA62DA6A22F40072AD
:10542000A9690A43DA62DA6A22F48072DA62596C94
:105430001B4A0A40E96942EAC1025A64DA6A42F444
:105440008072DA62C6B91A46DB6A43F48003D3621B
:10545000124A136843F080531360FCF755F8044672
:105460000E4B1B6813F0005F14D1FCF74DF8001BC6
:105470000228F5D90320ABE7012E05D0074AD36AED
:1054800043F08073D362E3E7044AD36A43F4000332
:10549000D362DDE700209BE70120704700440258FB
:1054A0000700FFFFF8B50446036813F0006F30D023
:1054B000836EB3F5001F26D00ED8EBB1B3F5801F75
:1054C00007D102210830FFF7E1FE054645B12E461F
:1054D00021E0012635461EE0B3F5401F09D1002525
:1054E000984A136D23F44013A16E0B4313650026F5
:1054F00011E0012635460EE0924AD36A43F40033A8
:10550000D3620025ECE702212830FFF745FF05466E
:10551000DCE700263546236813F4807F14D0A36DA2
:10552000042B32D8DFE803F003232A080800854A59
:10553000D36A43F40033D36255BB824A136D23F020
:105540000703A16D0B431365236813F4007F31D06B
:10555000E36D802B4CD020D8002B43D0402B19D1A9
:10556000002104F10800FFF791FE05461AE0002132
:1055700004F10800FFF78AFE0546DDE7002104F18B
:105580002800FFF709FF0546D6E701263546DBE789
:105590002E46D9E7012635460CE0C02B02D0B3F5E4
:1055A000807F1CD15DBB674A136D23F4E073E16D0E
:1055B0000B431365236813F4806F46D0D4F8A830EA
:1055C000B3F5800F39D01FD88BB3B3F5001F18D1B6
:1055D000002104F10800FFF759FE05461AE00126F4
:1055E0003546E7E7574AD36A43F40033D362D9E735
:1055F000002104F12800FFF7CFFE0546D2E72E4632
:10560000D8E70126354620E0B3F5C00F02D0B3F548
:10561000000F09D1C5B94B4A936D23F46003D4F848
:10562000A8100B43936510E0012635460DE0454A6E
:10563000D36A43F40033D362ECE7002104F128007D
:10564000FFF7AAFE0546E5E72E46236813F4006F30
:1056500024D0D4F8AC30B3F1007F42D00ED8002B68
:1056600039D0B3F1807F06D1002104F10800FFF7A3
:105670000DFE054608E0012635460FE0B3F1407FF8
:1056800002D0B3F1806F23D1002D31D12D4A936D1B
:1056900023F0E063D4F8AC100B439365236813F058
:1056A000007F2ED0E36C202B40D026D833B1102BB6
:1056B00020D1244AD36A43F40033D362002D3CD175
:1056C000204AD36C23F03003E16C0B43D36418E021
:1056D00001263546E2E71B4AD36A43F40033D3621E
:1056E000D2E7002104F12800FFF756FE0546CBE77C
:1056F0002E46D3E70126354603E0302BDED00126C7
:105700003546236813F4805F2DD0236EB3F5005F18
:105710004FD019D8002B46D0B3F5805F0FD10021B0
:1057200004F10800FFF7B2FD054613E0022104F181
:105730000800FFF7ABFD0546C0E72E46E1E701266E
:10574000354610E000440258B3F5405F02D0B3F58F
:10575000804F25D1002D33D1774A136D23F4E043D8
:10576000216E0B431365236813F4005F38D0636E1A
:10577000B3F5003F53D028D843B1B3F5803F21D1D2
:10578000012104F10800FFF781FD0546002D4DD1F0
:10579000694A136D23F4E023616E0B4313651FE028
:1057A00001263546DFE7644AD36A43F40033D36207
:1057B000D0E7002104F12800FFF7EEFD0546C9E718
:1057C0002E46D0E7012635460AE0B3F5802FDDD01E
:1057D000B3F5A02FDAD0B3F5403FD7D00126354638
:1057E000236813F4804F31D0D4F8B030B3F1005FA8
:1057F00045D020D843B1B3F1805F19D1012104F124
:105800000800FFF743FD0546002D3FD14A4A936D3E
:1058100023F0E043D4F8B0100B43936516E0012168
:1058200004F12800FFF7B8FD0546AFE72E46D7E79D
:10583000012635460AE0B3F1804FE5D0B3F1A04F21
:10584000E2D0B3F1405FDFD001263546236813F480
:10585000004F09D0236FB3F1805F19D0B3F1005F1F
:1058600024D0D3B101263546236813F0807F33D08E
:10587000A36C032B5BD8DFE803F027225327012119
:1058800004F12800FFF788FD0546BDE72E46DDE759
:10589000294AD36A43F40033D36275B9264A136D9B
:1058A00023F04053216F0B431365DDE7012104F121
:1058B0000800FFF7EBFC0546EFE72E46D4E71E4A4B
:1058C000D36A43F40033D362A5BB1B4AD36C23F0E5
:1058D0000303A16C0B43D364236813F4800F2DD111
:1058E000236813F0010F00F0A580E36F282B00F26E
:1058F0009F80DFE803F08D9D9D9D9D9D9D9D879DD3
:105900009D9D9D9D9D9D969D9D9D9D9D9D9D8D9DDE
:105910009D9D9D9D9D9D8D9D9D9D9D9D9D9D8D0074
:10592000022104F10800FFF7B1FC0546CCE701268F
:105930003546D1E72E46CFE700440258914A136816
:1059400043F480731360FBF7DFFD07468D4B1B6844
:1059500013F4807F05D1FBF7D7FDC01B6428F5D970
:105960000325002D4AD1884B1B6FD4F8B420534037
:1059700013F4407F0CD0844B1A6F22F44072196FDD
:1059800041F480311967196F21F4803119671A6762
:10599000D4F8B430B3F5807F15D08DBBD4F8B430D3
:1059A00003F44072B2F5407F1ED0774A136923F4A6
:1059B0007C53136174490B6FD4F8B420C2F30B020B
:1059C00013430B678CE7FBF79FFD07466E4B1B6F7E
:1059D00013F0020FE1D1FBF797FDC01B41F28833B2
:1059E0009842F3D90325D8E76748026922F47C522C
:1059F000664901EA131313430361DBE72E466FE7A1
:105A00002E466DE7012104F10800FFF73FFC054633
:105A1000E5B95D4A536D23F03803E16F0B435365DD
:105A200008E0012104F12800FFF7B6FC0546EFE786
:105A300001263546236813F0020F17D0A36F052BFC
:105A400028D8DFE803F00B05200B0B0B2E46F1E7FF
:105A5000012104F10800FFF719FC0546EDB94A4A97
:105A6000536D23F00703A16F0B435365236813F0B5
:105A7000040F23D0D4F89430052B45D8DFE803F089
:105A8000150F3D151515012104F12800FFF784FCC1
:105A90000546E3E701263546E8E72E46E6E701211D
:105AA00004F10800FFF7F2FB054685BB364A936D0B
:105AB00023F00703D4F894100B439365236813F085
:105AC000200F34D0D4F89030B3F1005F4ED023D8FB
:105AD00043B1B3F1805F1CD1002104F10800FFF74E
:105AE000D5FB0546002D48D1274A536D23F0E043EE
:105AF000D4F890100B43536519E0012104F12800FC
